:020000040800F2
:10000000180400203D030008490100084B010008C6
:100010004F010008530100085701000800000000CC
:100020000000000000000000000000005B0100086C
:100030005D010008000000005F0100086101000888
:100040005703000857030008570300085703000828
:100050005703000857030008570300085703000818
:100060005703000857030008570300085703000808
:1000700057030008570300085703000857030008F8
:1000800057030008570300085703000857030008E8
:1000900057030008570300085703000857030008D8
:1000A00057030008570300085703000857030008C8
:1000B00057030008570300085703000857030008B8
:1000C00057030008570300085703000857030008A8
:1000D0005703000857030008570300085703000898
:1000E0005703000857030008570300085703000888
:1000F0005703000857030008570300085703000878
:100100005703000857030008570300085703000867
:100110005703000857030008570300085703000857
:100120005703000857030008570300085703000847
:10013000DFF80CD000F014F9004800474501000832
:100140001804002000BFFEE7704700BFFEE700BFB5
:10015000FEE700BFFEE700BFFEE77047704770474D
:10016000704700006C48006840F001006A49086070
:100170000846406869490840674948600846006881
:1001800067490840644908600846006820F48020F8
:1001900008600846406820F4FE0048604FF41F00E5
:1001A0008860C8035F490860704710B500210020CF
:1001B0000022594B5B6803F00C0121B1042906D0E1
:1001C000082928D107E0584B584C236027E0564BAC
:1001D000564C236023E0504B5B6803F470104E4B89
:1001E0005B6803F48032022303EB904022B9504B4A
:1001F00043434E4C23600DE0474B5B6803F40033F0
:1002000023B14B4B4343494C236003E0464B4343EC
:10021000464C236003E0444B444C236000BF00BFC6
:100220003D4B5B68C3F30313424CE15C3F4B1B68DF
:10023000CB403E4C236010BD0CB5002001900090D7
:100240003548006840F480303349086000BF3248C8
:10025000006800F4003000900198401C0190009864
:1002600018B90198B0F5A06FF1D12B48006800F4DF
:10027000003010B10120009001E0002000900098B3
:10028000012843D12C48006840F010002A4908603A
:100290000846006820F0030008600846006840F047
:1002A000020008601C4840681B49486008464068D6
:1002B00048600846406840F48060486008464068EE
:1002C00020F47C1048600846406840F4E81048601C
:1002D0000846006840F08070086000BF0E48006863
:1002E00000F000700028F9D00B48406820F00300AF
:1002F000094948600846406840F00200486000BF75
:100300000548406800F00C000828F9D10CBD10B574
:10031000FFF792FF10BD0000001002400000FFF840
:10032000FFFFF6FE08ED00E000127A00000000205A
:1003300000093D00040000200020024006488047DC
:1003400006480047FEE7FEE7FEE7FEE7FEE7FEE7BA
:10035000FEE7FEE7FEE7FEE7650100083101000861
:10036000064C074D06E0E06840F0010394E8070002
:1003700098471034AC42F6D3FFF7DEFEA403000822
:10038000C403000802E008C8121F08C1002AFAD1FD
:1003900070477047002001E001C1121F002AFBD105
:1003A00070470000C4030008000000201400000093
:1003B00084030008D803000814000020040400008F
:1003C0009403000800A24A0400000000000000009E
:0803D0000102030406070809FD
:0400000508000131BD
:00000001FF
