:020000040800F2
:10000000380400209D06000855010008570100082B
:100010005B0100085F0100086301000800000000A8
:100020000000000000000000000000006701000860
:1000300069010008000000006B0100086D01000864
:10004000B7060008B7060008B7060008B70600089C
:10005000B7060008B7060008B7060008B70600088C
:10006000B7060008B7060008B7060008B70600087C
:10007000B7060008B7060008B7060008B70600086C
:10008000B7060008B7060008B7060008B70600085C
:10009000B7060008B7060008B7060008B70600084C
:1000A000B7060008B7060008B7060008B70600083C
:1000B000B7060008B7060008B7060008B70600082C
:1000C000B7060008B7060008B7060008B70600081C
:1000D000B7060008B7060008B7060008B70600080C
:1000E000B7060008B7060008B7060008B7060008FC
:1000F000B7060008B7060008B7060008B7060008EC
:10010000B7060008B7060008B7060008B7060008DB
:10011000B7060008B7060008B7060008B7060008CB
:10012000B7060008B7060008B7060008B7060008BB
:10013000DFF80CD000F044FE0048004745010008FD
:100140003804002000F04DF903E00121C02000F048
:1001500071FAFAE7704700BFFEE700BFFEE700BF95
:10016000FEE700BFFEE7704770477047704700002A
:100170006C48006840F001006A4908600846406821
:10018000694908406749486008460068674908406F
:10019000644908600846006820F48020086008462A
:1001A000406820F4FE0048604FF41F008860C803D8
:1001B0005F490860704710B5002100200022594BAC
:1001C0005B6803F00C0121B1042906D0082928D16D
:1001D00007E0584B584C236027E0564B564C2360A1
:1001E00023E0504B5B6803F470104E4B5B6803F4E4
:1001F0008032022303EB904022B9504B43434E4CD4
:1002000023600DE0474B5B6803F4003323B14B4B95
:100210004343494C236003E0464B4343464C236031
:1002200003E0444B444C236000BF00BF3D4B5B6880
:10023000C3F30313424CE15C3F4B1B68CB403E4C85
:10024000236010BD0CB50020019000903548006877
:1002500040F480303349086000BF3248006800F441
:10026000003000900198401C0190009818B9019846
:10027000B0F5A06FF1D12B48006800F4003010B148
:100280000120009001E0002000900098012843D157
:100290002C48006840F010002A49086008460068B1
:1002A00020F0030008600846006840F00200086083
:1002B0001C4840681B49486008464068486008463A
:1002C000406840F4806048600846406820F47C1034
:1002D00048600846406840F4E810486008460068F6
:1002E00040F08070086000BF0E48006800F00070A9
:1002F0000028F9D00B48406820F003000949486005
:100300000846406840F00200486000BF0548406869
:1003100000F00C000828F9D10CBD10B5FFF792FFD2
:1003200010BD0000001002400000FFF8FFFFF6FEC5
:1003300008ED00E000127A000000002000093D00F6
:100340000400002000200240002105E0092100BF38
:100350000A00A1F10101FBD10200A0F10100F5D1D9
:100360007047002106E042F6302100BF0A00A1F1EB
:100370000101FBD10200A0F10100F4D1704708B5E2
:100380000121082000F0B8FC4FF40040ADF8000057
:1003900004208DF8030003208DF802006946874889
:1003A00000F0EEF94FF40041844800F096FA08BDE1
:1003B00008B50121082000F09FFC4FF40040ADF883
:1003C000000010208DF8030003208DF8020069461C
:1003D0007A4800F0D5F94FF40041784800F07DFAF2
:1003E00008BD08B50121082000F086FC4FF440400C
:1003F000ADF8000010208DF8030003208DF80200F6
:1004000069466E4800F0BCF901206D4908606D49ED
:10041000C1F8BC0108BD10B5FFF7CAFF012068494B
:10042000091D08606749C1F8B8010420FFF78CFF77
:1004300000206349091D08600420FFF785FF0020A4
:100440006049C1F8B8010420FFF77EFF10BD10B568
:10045000FFF7AEFF00205A4908605A49C1F8BC01B5
:100460000420FFF771FF012055490860FFF76CFF7A
:1004700001205449C1F8BC010420FFF765FF10BDFD
:1004800010B50024FFF77BFF01204D49091D0860CE
:10049000FFF75AFF01204B49C1F8B801FFF754FF9D
:1004A00007E0601CC4B2FA2C03DDFFF7D0FF012087
:1004B00010BD43487C3800680028F2D140490860EC
:1004C00000BFF5E710B500203D490860FFF770FF59
:1004D00000203C49C1F8BC011420FFF735FF012082
:1004E000374908600220FFF72FFF00203549C1F887
:1004F000B80110BD10B5002031490860FFF758FF62
:1005000001203049C1F8BC010520FFF71DFF012083
:100510002B4908600520FFF717FF00202949C1F883
:10052000B80110BD70B50446FFF742FF0020244912
:100530000860002517E0E0092149091D08606006F0
:10054000040E0520FFF700FF01201E49C1F8B80185
:100550000520FFF7F9FE0020194908600520FFF784
:10056000F3FE681CC5B2082DE5DB70BD70B505460D
:100570000024FFF704FF002616E000201049086061
:100580000520FFF7E1FE01200E49C1F8B801600621
:10059000040E0B487C38006808B1601CC4B205200A
:1005A000FFF7D2FE701CC6B2082EE6DB15B9FFF7C6
:1005B000A1FF01E0FFF786FF204670BD000C01405F
:1005C000B88121420080214270B50446FFF723FF25
:1005D0004020FFF7A7FF00BFFFF752FF0028FBD125
:1005E000FFF735FFFFF717FFC020FFF79BFF00BFA6
:1005F000FFF746FF0028FBD100250AE02078FFF72F
:1006000091FF00BFFFF73CFF0028FBD1641C681C72
:10061000C5B2042DF2DBFFF71AFFFFF7FCFE8C20BA
:10062000FFF780FF00BFFFF72BFF0028FBD1FFF78C
:100630000EFF70BD70B505460C46FFF7ECFE44207A
:10064000FFF770FF00BFFFF71BFF0028FBD1FFF78C
:10065000FEFEFFF7E0FE2846FFF764FF00BFFFF74E
:100660000FFF0028FBD10C49085DFFF75BFF00BFBF
:10067000FFF706FF0028FBD1FFF7E9FEFFF7CBFEEF
:100680008C20FFF74FFF00BFFFF7FAFE0028FBD1D9
:10069000FFF7DDFE70BD0000140000200648804713
:1006A00006480047FEE7FEE7FEE7FEE7FEE7FEE757
:1006B000FEE7FEE7FEE7FEE77101000831010008F2
:1006C00010B50446CC48844208D10121042000F032
:1006D0002DFB0021042000F029FB46E0C74884429E
:1006E00008D10121082000F021FB0021082000F0A2
:1006F0001DFB3AE0C248844208D10121102000F0DD
:1007000015FB0021102000F011FB2EE0BD488442B3
:1007100008D10121202000F009FB0021202000F059
:1007200005FB22E0B848844208D10121402000F0B6
:10073000FDFA0021402000F0F9FA16E0B3488442A7
:1007400008D10121802000F0F1FA0021802000F082
:10075000EDFA0AE0AE48844207D10121801500F08D
:10076000E5FA0021A01500F0E1FA10BD10B5012155
:10077000084600F0DBFA0021012000F0D7FA10BD96
:100780002DE9F04102460025002600200023002428
:10079000002791F803C00CF00F0591F803C00CF08E
:1007A000100CBCF1000F03D091F802C04CEA050513
:1007B00091F800C0BCF1000F31D0146800202BE08C
:1007C0004FF0010C0CFA00F3B1F800C00CEA03067C
:1007D0009E4220D183004FF00F0C0CFA03F7BC436C
:1007E00005FA03FC4CEA040491F803C0BCF1280F9D
:1007F00006D14FF0010C0CFA00FCC2F814C00AE05C
:1008000091F803C0BCF1480F05D14FF0010C0CFA70
:1008100000FCC2F810C0401C0828D1D31460B1F805
:1008200000C0BCF1FF0F34DD546800202EE000F161
:10083000080C4FF0010808FA0CF3B1F800C00CEAFC
:1008400003069E4221D183004FF00F0C0CFA03F7F0
:10085000BC4305FA03FC4CEA040491F803C0BCF164
:10086000280F05D100F1080C08FA0CF8C2F8148022
:1008700091F803C0BCF1480F07D100F1080C4FF00C
:10088000010808FA0CF8C2F81080401C0828CED3E2
:100890005460BDE8F0814FF6FF7101800221817044
:1008A0000421C17070470246002093680B400BB1D1
:1008B000012000E0002070470146886880B2704740
:1008C00002460020D3680B400BB1012000E000205D
:1008D00070470146C86880B2704701617047416146
:1008E00070470AB1016100E041617047C160704723
:1008F0004FF480320A438261816182618269826938
:10090000704702460020434B18684FF6807318402A
:1009100040EA021008433F4B186070473E49C861E7
:100920007047F0B50A46002300240021002500F09E
:100930000046B6F1004F02D1364EF16901E0354E66
:100940007168C0F3034583B200F44016B6F5401F4A
:1009500008D121F070612F4E766826F070662D4F19
:100960007E6012E000F48016B6F5801F06D10326E3
:1009700006FA05F4A14341F0706106E0460D360128
:1009800003FA06F6B14341F0706122B1460D36011B
:1009900003FA06F6314300F00046B6F1004F02D1EB
:1009A0001C4EF16101E01B4E7160F0BD30B50022BC
:1009B0008B071C0F0F2303FA04F2164B08338C101D
:1009C00053F824309343134C08348D1044F82530E9
:1009D00023468C1053F824308C07240F00FA04F4BB
:1009E00023430C4C08348D1044F8253030BD0A499F
:1009F000DC3108607047000000080140000C014035
:100A0000001001400014014000180140001C01408A
:100A1000002001400000014000002042DF48006843
:100A200040F00100DD49086008464068DC490840A4
:100A3000DA49486008460068DA490840D749086042
:100A40000846006820F4802008600846406820F4CA
:100A5000FE0048604FF41F0088607047CF49096866
:100A600021F48031CD4A11601146096821F48021BA
:100A70001160B0F5803F03D0B0F5802F0ED106E0B5
:100A8000C649096841F48031C44A116007E0C3498E
:100A9000096841F4A021C14A116000E000BF00BF15
:100AA000704710B501460022002300204A11012A98
:100AB00002D1BA4C236806E0022A02D1B74C236A5D
:100AC00001E0B64C636A01F01F02012494401C400F
:100AD0000CB1012000E0002010BD38B500200090CE
:100AE0000024002500BF3120FFF7DBFF05460098FA
:100AF000401C00900098B0F5A06F01D0002DF2D0FE
:100B00003120FFF7CEFF08B1012400E00024204689
:100B100038BD01460020A14A106820F0F80040EAE4
:100B2000C10010607047A04908607047024600206D
:100B30009A4B586820F47C1042EA01031843974B03
:100B40005860704798490866704701460020934AEC
:100B5000506820F003000843506070478F48406899
:100B600000F00C007047014600208C4A506820F0CD
:100B7000F00008435060704701460020874A5068E3
:100B800020F4E06008435060704701460020834A2B
:100B9000506820F4605040EAC1005060704729B1AD
:100BA0007E4A527A02437D4B5A7204E07B4A527A63
:100BB00082437A4B5A7270477B49D831086070473C
:100BC00001460020754A506820F4404008435060B8
:100BD00070470021714A20321170704A82F820104B
:100BE000012802D004280AD104E001216B4A2032F6
:100BF000117005E00521694A2032117000E000BF44
:100C000000BF70476949086070476449096A014339
:100C1000624A11627047654944390860704730B5CF
:100C200000210022002400235C4D6D6805F00C01BA
:100C300021B1042905D0082923D105E05C4D0560C8
:100C400022E05B4D05601FE0544D6D6805F47012A5
:100C5000524D6D6805F48034022505EB92421CB9B3
:100C6000544D554305600BE04C4D6D6805F400355F
:100C70001DB1504D5543056002E04D4D5543056093
:100C800002E04B4D056000BF00BF444D6D6805F0AC
:100C9000F0010909484D6B5C0568DD4045603F4D3A
:100CA0006D6805F4E061090A434D6B5C4568DD4001
:100CB00085603A4D6D6805F46051C90A3E4D6B5C24
:100CC0004568DD40C560354D6D6805F44041890BD0
:100CD0003A4D6B5CC568B5FBF3F5056130BD29B1D4
:100CE0002E4A526902432D4B5A6104E02B4A526945
:100CF00082432A4B5A61704729B1284A92690243BC
:100D0000264B9A6104E0254A92698243234B9A61FB
:100D1000704729B1214AD2690243204BDA6104E0CD
:100D20001E4AD26982431D4BDA61704729B11B4AC2
:100D3000D2680243194BDA6004E0184AD268824351
:100D4000164BDA60704729B1144A12690243134BFB
:100D50001A6104E0114A12698243104B1A6170470C
:100D600012494039086070470F49C86470470B4901
:100D7000C87170470948406A40F08070074948626E
:100D8000704701460020054A92680A400AB10120D6
:100D900000E000207047014988727047001002404F
:100DA0000000FFF8FFFFF6FE0000424280044242CE
:100DB00000127A0000093D001E0000202E000020D5
:100DC000064C074D06E0E06840F0010394E8070098
:100DD00098471034AC42F6D3FFF7AEF9040E000882
:100DE000240E000802E008C8121F08C1002AFAD128
:100DF00070477047002001E001C1121F002AFBD19B
:100E000070470000240E000800000020340000009D
:100E1000E40D0008580E000834000020040400000F
:100E2000F40D000800A24A040000000000000000C9
:100E300001020304060708093F065B4F666D7D0744
:100E40007F6F000000000102030401020304060793
:080E5000080902040608000075
:0400000508000131BD
:00000001FF
